:020000040802F0
:1000000000AA0020B13C0208490202084902020885
:1000100049020208490202084902020800000000E1
:10002000000000000000000000000000115F020856
:100030004902020800000000915F0208CD5F02083B
:10004000490202084902020849020208E1030208C3
:10005000490202084902020829030208290302088A
:100060002903020829030208290302084902020899
:1000700049020208514903084902020849020208DC
:100080002D020208F5010208F5350308C13A0308FC
:10009000DD3A0308F93A0308153B0308290302086F
:1000A000E93903083D3A0308793A0308FD350308A6
:1000B0004D36030851370308B9370308553F030885
:1000C0000D3F0308490202084902020849020208DA
:1000D00049020208A1010208BD0102084902020802
:1000E00029030208EF44030849020208C138030843
:1000F00015390308513903089539030845490308A0
:100100004902020861020208213803084902020874
:10011000490202084902020889380308FD0302085F
:10012000490202084902020811020208FD020208FF
:10013000490202084902020849020208313B030849
:100140004D3B0308693B0308853B0308490202084D
:100150004B49030849020208D90102084902020872
:100160004902020849020208E9550308DD5503085F
:10017000A1550308D15503084902020849020208A3
:040180004902020826
:1001840000000208802A090800000000060003009D
:08019400000000000000000063
:1001A000684620F007018D4601B5034804F04AFD7A
:1001B000BDE8014085467047840E0020684620F067
:1001C00007018D4601B5034804F03CFDBDE8014040
:1001D00085467047A00E0020684620F007018D4636
:1001E00001B5034804F04BFDBDE80140854670476A
:1001F000840E0020684620F007018D4601B50348B3
:1002000004F03DFDBDE8014085467047A00E00208A
:10021000684620F007018D4601B5034804F055FDFE
:10022000BDE8014085467047840E0020684620F0F6
:1002300007018D4601B5034804F047FDBDE80140C4
:1002400085467047A00E0020684620F007018D46C5
:10025000024B01B55B6800BE04F028F800ED00E039
:10026000684620F007018D4640F2332219B51B4B3A
:100270005C6B22404AB11A4A012111704FF0FF32E3
:100280009A6318480CF09EFD24E014F0C00F19D0BA
:100290005B691A0506D5124B0121124819700CF042
:1002A00091FD0CE0104B1B68352B08D10F4B1B78D0
:1002B000012B08BF0E4A0F4B18BF0F4A1A60074B9D
:1002C000C0229A63630205D5044B4FF480029A63FF
:1002D0000EF03CFABDE8194085467047002C0140FD
:1002E0006D0F00207C0F0020840F0020780F00206D
:1002F0007154A308586402403154A308684620F0A2
:1003000007018D4601B5064B4FF07C629A600548A7
:1003100001210CF057FDBDE801408546704700BF44
:10032000006402407C0F0020684620F007018D46E3
:1003300019B5274B5B6803F03F03103B092B17D01F
:1003400007D8072B0ED010D8062B3CD10123002450
:1003500029E0172B0FD0282B19D00A2B33D11023CB
:10036000042420E0022301241DE0042302241AE0D7
:100370000823032417E01749202305244A69134260
:1003800011D101340A2C4FEA4303F7D10BE0114994
:100390004FF480630A244A69134204D10134102CBB
:1003A0004FEA4303F7D10B4A53610B4B13B1E0B251
:1003B00013F036FF094B0C2202FB0434636813B1BF
:1003C000A06863689847BDE819408546704700BF3C
:1003D00000ED00E0003C0140214203088C170020A2
:1003E000684620F007018D4601B54FF4800000F00B
:1003F00069FEBDE80140854670470000684620F070
:1004000007018D464FF6FE72034B01B51A8200BEFE
:10041000BDE80140854670470014004000B1807B74
:10042000704708B1C07B7047FF20704708B18089D2
:1004300070474FF6FF70704705C8101A704737B500
:10044000044600F57F7594F80834012B20D0284627
:1004500069464FF0FF320CF063FE18B100230093A1
:100460008DF804309DF80430022B08D0032B0BD0FC
:10047000012BE8D1204600990DF0C2FBE3E72046AE
:1004800000990DF09BFADEE7012384F80834DAE7DF
:1004900020460DF0C3FA28460CF0B9FD002005F007
:1004A00017F803B030BD0000024601F58060014935
:1004B0000CF087BED908020807B501238DF8043077
:1004C00002AB43F8080D002201F57F7019460CF0CD
:1004D00025FE03B05DF804FB2DE9F0430446994680
:1004E0000F46164685B0002140F214429DF8308038
:1004F0000D9D2AF051FF184BC4F80C940093174B34
:1005000003940193164B2046029341463A463346E4
:100510000DF0DAFAE8B9072104F580602A460A23CB
:100520000CF000FE0146A0B904F57F7008220A23F2
:100530000CF064FD68B940F2DC530A4A0C930A4B94
:1005400004F57E7005210D9405B0BDE8F0430CF074
:10055000F1BC05B0BDE8F083B9040208A9040208A3
:10056000D3050208B4EA04083F04020837B505467B
:10057000002202A9032341F8082D00F57F7005F53C
:100580007E748DF804300CF0C9FD20460CF0EFFCB1
:1005900060B120460CF0F5FC20460CF0AAFD204688
:1005A0000CF0DAFC05F580600CF0FEFD002003B0D5
:1005B00030BD07B502238DF8043002AB43F8081DA7
:1005C0001946002200F57F700CF0A8FD03B05DF81D
:1005D00004FB034608461946FFF7EBBF01230375EA
:1005E000002070472DE9F0430E4685B000210446F7
:1005F000154668460F221F46DDF834802AF0CCFEEF
:10060000574B53F8269048462BF031FF4946024697
:1006100020460DF0E5FE002840F09E80204651491E
:1006200002220DF0DDFE002840F09680B8F1000FA8
:1006300019D040462BF01BFF8146414620464A46D2
:100640000DF0CEFE002840F08780C84418F9023C27
:100650000D2B03D118F9013C0A2B04D02046414947
:1006600002220DF0BDFE20463F490E220DF0B8FEDD
:10067000002871D19DF830203C4B53F82280404631
:100680002BF0F5FE4146024620460DF0A9FE00285B
:1006900062D12046334902220DF0A2FE00285BD130
:1006A0002FB10C2E12D120463149112211E02046E3
:1006B00030495F220DF094FE00284DD12046294993
:1006C00002220DF08DFE0028EBD045E020462A499D
:1006D00016220DF085FE00283ED120462149022237
:1006E0000DF07EFE002837D1637D012B0BD1204613
:1006F00022491E220DF074FE70BB204619490222C9
:100700000DF06EFE40BB237D012B03D120461C491A
:100710001A2217E02DB92046124902220DF060FE80
:100720001AE018492A4668462BF0F8FD204616497B
:1007300010220DF055FE78B968462BF098FE6946F8
:10074000024620460DF04CFE30B9204605490222F3
:100750000DF046FE0028DED005B0BDE8F08300BFF6
:1007600090EE040800E40808CBEA0408D0EE040880
:100770003AEB0408DAEA04084CEB040863EB0408DB
:1007800082EB0408371509089DEB04087FB5044681
:100790000E46154652B3037D012B18D100210A22C3
:1007A00001A82AF0F9FD13492A4601A82BF0B6FD4D
:1007B00001A82BF05CFE01A9024620460DF010FEB8
:1007C000A8B920460C4902220DF00AFE78B920464D
:1007D00031462A460DF004FE48B9227D012A06D191
:1007E0002046054902220DF0FBFD00E0052004B083
:1007F00070BD00BFAEEB040800E408082DE9FF411E
:1008000007460E4600250DF10808CDF80080304659
:1008100029466FF0004203AB03F0D8FA08B1002478
:1008200010E002993846BDF80C20FFF7AFFF0446F0
:100830000299304603F0DDFA24B9039B1D44002BD6
:10084000E3D1ECE7204604B0BDE8F081037D10B5AC
:10085000012B044604D02046BDE810400DF08EBEAA
:10086000034905220DF0BCFD0028F4D010BD00BFE7
:10087000B2EB040838B504460D46182200212AF0D0
:100880008BFD0023237520462946BDE838400DF036
:10089000A1BD0DF099BE00002DE9F0410646A0B1C2
:1008A000DFF83080002558F82570ECB238462BF080
:1008B000DEFD3946024630462BF004FE30B10135EC
:1008C00001340F2DE4B2EED100E00F242046BDE844
:1008D000F08100BFD0EE04082DE9F04F91B0002464
:1008E00010A941F8344D22460646076B0DF05EFD17
:1008F0000398002800F0D48110238DF81D300323C5
:100900008DF81E300DF10A030093214604AA02ABB4
:100910000594ADF81840ADF81A408DF81C400896C3
:1009200009940DF029FA002840F03981D7F81034E5
:100930002BB9BDF80830112B40F2358107E0304665
:1009400004A902AA9847002840F02981F1E7049CF5
:10095000B44920462BF0EDFDB349804620462BF0EC
:10096000E8FD0546002800F017812046AF49042223
:100970002AF0DCFC10B98DF81E0013E02046AC49CB
:1009800005222AF0D3FC20B901238DF81E3005344E
:1009900009E02046A74904222AF0C8FC58B90223DE
:1009A0008DF81E3004342B1B9BB21D462046214679
:1009B0004FF0000C10E003238DF81E30ECE0994559
:1009C0003ED00278252A37D190F90120252A0AD174
:1009D00001300A7001310130C4EB01091FFA89F9B5
:1009E000002DECD12DE081F800C000F1020991F951
:1009F00000204FEA021E81F800E010F8012FA2F15A
:100A0000300A5FFA8AFABAF1090F02D80AEB0E022D
:100A10000DE0A2F1610ABAF1050F01D8573A05E0DD
:100A2000A2F1410ABAF1050F02D8373A72440A70AE
:100A30004845DCD1033D01E00A70013DADB2C9E794
:100A40009946DDF810A07C4950462BF072FD08B99C
:100A50000590A1E0051D7949504605952BF069FDEB
:100A600038B1A84205D20E30FFF716FF8DF81D00F1
:100A700002E00F238DF81D30504671492BF059FDCF
:100A8000834650B1012328466E498DF81C302BF067
:100A900050FD401BADF818001AE050466A492BF093
:100AA00048FD90B1A84210D2BDF808301030534430
:100AB0005D1B59460A22ADF818502BF037FEBDF8E1
:100AC0001830C01AADF81A0002E00023ADF8183053
:100AD0000023D7F80C54CB4604F8093022464B4685
:100AE000924612F8011B3F2903D033B111B1013BEB
:100AF000F6E713B1C3EB090B00E0A2460AA83146A2
:100B0000FFF7B8FED5F80090B9F1000F18D02B7A96
:100B1000042B04D148462BF0AAFC024600E05A46BA
:100B2000484621462BF0ACFC40B96868FFF7B4FE9C
:100B30009DF81D2090423AD00F2A38D01435E1E7B5
:100B400006240FE0002401228DF83C20009021466D
:100B500001940AA822462346FFF744FD0AA8E96843
:100B6000FFF74CFE0AA8FFF771FE0246A0B9032C5E
:100B70008DF83C0003D80AA8FFF78BFE0CE0092390
:100B80000093019021460AA81346FFF72BFD0AA8FF
:100B9000FFF75CFE0028EED0B8F1000F03D0384616
:100BA0003146FFF706FD03980DF0D0F878E0297A7A
:100BB0000022052972D801A353F821F00D0C020878
:100BC000D50B0208450B02084D0C0208FD0B02086C
:100BD000450B020801210AF8012B8DF83C10002179
:100BE0008DE805000B460A460AA8FFF7FBFCEC68F7
:100BF00050460AA92A6905ABA0474FE0D5F80CC0BA
:100C000020460AA92A6905ABE04747E08DE80500C0
:100C100000212A690AA80123FFF7E4FC0AA8E96871
:100C20002A6939E03AEB0408B8EB0408C2EB04087F
:100C3000C7EB0408CDEB0408FEE30808CBEA040880
:100C400082EB0408B2EB04089DEB040816490C2261
:100C50000AA8FFF79BFD154902220AA8FFF796FD97
:100C600013490A220AA8FFF791FDE9682A690AA830
:100C7000FFF78CFD0D4902220AA8FFF787FD0D49F9
:100C800010220AA8FFF782FD0B4901220AA8FFF7EC
:100C90007DFD0A490AA80422FFF778FD002461E7D8
:100CA000002011B0BDE8F08FD2EB040800E4080882
:100CB000DFEB04089DEB0408A5DD0808FEE3080847
:100CC0004268C368806813441B1AB3FBF2F002FB4E
:100CD00010307047034610B502391C1A8C4206D2F8
:100CE0001C78944205D05C7802342344F5E7002058
:100CF00010BD184610BD000040F0BF60024B40F42C
:100D00000030D860704700BF00ED00E0C37803B347
:100D1000164BDA68164BC2F30222995C4378013213
:100D20009340827823EA01030A40DBB2134302783E
:100D300002F1604202F5614282F800330378012239
:100D4000590903F01F0302FA03F30A4A42F821305B
:100D50007047037801215A0903F01F03994002F1FB
:100D60002003044A42F82310704700BF00ED00E062
:100D700010EF040800E100E0044B04281A680CBFDF
:100D800042F0040222F004021A60704710E000E012
:100D90008368F0B55C0107D483681A0106D48368C0
:100DA000DB0005D404224FE0002202E0012200E033
:100DB000022214010319D3F8805105F00105C3F88C
:100DC00080510D7A35B90F684D7AD3F8806145EAC4
:100DD000475506E04F68D3F8806145EAC7053543BB
:100DE0004E7A3543C3F880518D7A204405F00F05C3
:100DF0008D72D3F8845125F00F05C3F884518E7A93
:100E0000D3F884513543C3F884514D7B8E7B2D0438
:100E100045EA0665CE7A35430E7B45EA0625C0F8DD
:100E2000885100F5C476487C8C7C000440EA046458
:100E3000C87B097C204340EA01217160D3F880110E
:100E400041F00101C3F880111046F0BD0B0130B52F
:100E5000C418D4F8B05105F00405EDB2157225B9E7
:100E6000D4F8B0516D0D156003E0D4F8B051ED0821
:100E70005560D4F8B051034405F002055572D4F81A
:100E8000B45105F00F059572D4F8B441240AD47416
:100E9000D3F8B85103F5DC74D572D3F8B8512D0AE4
:100EA0001573D3F8B8512D0C5573D3F8B8311B0E08
:100EB00093736368D37363681B0A137463681B0CB2
:100EC000537463681B0E937421B9C36843F0200305
:100ED000C36030BD036943F02003036130BD09B92D
:100EE000C06802E0012903D1006900F003007047E7
:100EF00000207047B1F5807F35D00CD8082924D068
:100F000004D801291CD004291DD0704720291FD0E6
:100F100040291FD07047B1F5006F22D006D8B1F537
:100F2000007F20D0B1F5806F1DD07047B1F5803FB4
:100F300013D0B1F5003F12D0B1F5004F15D110E03C
:100F40000A4B83607047082300E01023C36070479A
:100F5000082300E0102303617047082304E01023F6
:100F600002E0002383610423436070470101010014
:100F7000014B01229A60704700300240064A01236B
:100F800019B1116883400B4303E01168834021EAE3
:100F900003031360704700BF00740040036811B181
:100FA00043F0010301E023F0010303607047406850
:100FB00080B27047104A114B10B5114CA04294BF3B
:100FC0001C46144621F0F02323F0C3122AB1006816
:100FD00000F01E0000EAD12202E0406900F0800229
:100FE00089004CBF6068206823F08213184002D04B
:100FF000101C18BF012010BD0064024000600240B8
:101000000F64024010B5084A084B094CA04294BF37
:101010001846104611F0005F21F0F02121F08211F6
:1010200014BFC160816010BD0064024000600240D6
:101030000F640240837930B54BB30168194BCD433F
:101040001C682C401C605A682A405A60027902F1E0
:10105000804202F59E3214682143116002689C6848
:10106000D5432C409C60D9682940D960417910292A
:1010700006D1996811439960D9680A43DA6030BD96
:1010800001F1804303F59E3319680A4308E00379B0
:10109000016803F1804303F59E331A6822EA0102D6
:1010A0001A6030BD003C0140054B1A685B69034083
:1010B00004D0104214BF012000207047184670472A
:1010C000003C0140014B5861704700BF003C0140AB
:1010D000014BC0B218707047003C0240044B1A68C4
:1010E00010B142F4807201E022F480721A607047FD
:1010F000003C0240044B1A69002ABFBF034A5A60F1
:1011000002F188325A607047003C02402301674573
:10111000024A136943F0004313617047003C0240E8
:10112000044B5A69D20741BF034A9A6002F1443224
:101130009A607047003C02403B2A1908024A5369F2
:1011400043F0010353617047003C0240014B188893
:1011500080B27047163C0240014BD860704700BF18
:10116000003C02400B4BDA68D1030DD4DA68D2069A
:101170000CD4DA6812F0EF0F0AD1DB6813F0020F1B
:1011800014BF0720082070470120704705207047D2
:1011900006207047003C024007B508238DF8073051
:1011A000FFF7E0FF8DF807009DF80730012BF7D01F
:1011B0009DF8070003B05DF804FB000070B506461B
:1011C00041B1012908D002290CBF4FF400754FF43A
:1011D000407503E00D4601E04FF48075FFF7DCFF3A
:1011E00008281ED10F4C236923F440732361216921
:1011F00029432161236923F0F8032361236943F024
:1012000002031E432661236943F480332361FFF701
:10121000C3FF236923F002032361236923F0F8034A
:10122000236170BD003C024070B505460E46FFF7D5
:10123000B3FF082813D10A4C236923F440732361B8
:10124000236943F400732361236943F0010323619D
:101250002E60FFF7A1FF236923F00103236170BD16
:10126000003C024070B505460E46FFF795FF082882
:1012700011D1094C236923F440732361236923614D
:10128000236943F0010323612E70FFF785FF236973
:1012900023F00103236170BD003C024038B50446D1
:1012A0000D46FFF779FF08280AD1064A13881DB1B9
:1012B0009BB223EA040002E044EA030080B21080FB
:1012C00038BD00BF163C0240034A137843F00203C6
:1012D0001370FFF761BF00BF143C02402DE9F043DB
:1012E0000E68002301274FF0030E07FA03F202EA0B
:1012F000060C944531D15D000EFA05F2D243046824
:10130000144004600C79D0F8008004FA05F9013C1F
:1013100049EA0808012CC0F8008016D8846891F8C2
:10132000058014408460846808FA05F848EA0404DB
:101330008460446824EA0C0444608C79D0F804C0CA
:101340009C40A4B244EA0C044460C4682240C260D9
:10135000CA79C468AA402243C2600133102BC4D1A9
:10136000BDE8F0830369194214BF012000207047D3
:101370004369194214BF01200020704701F00703A0
:10138000C90800EB810010B59B00046A0F21994049
:1013900024EA01010162016A9A401143016210BD11
:1013A000044B1A6810B142F0040201E022F004027A
:1013B0001A60704700080650014B9868704700BFDC
:1013C00000080650034B5B68184214BF0120002040
:1013D000704700BF00080650038819B99BB243F05C
:1013E000800303E023F080031B041B0C0380704781
:1013F00001827047008AC0B2704782B00023019317
:101400000190019B19440191019B188880B202B0A0
:101410007047838A008B9BB243EA004020F07F40F4
:10142000704782B00023009301930B0F019000934B
:10143000009B21F07F4113B1019B143302E0019B1B
:10144000090C18330193019B1B68194214BF01203A
:10145000002002B070478388808A9BB280B2084027
:1014600006D001F0E06113EA114314BF012000200F
:101470007047C94389B2818270470000014B1860F0
:10148000704700BF00300040014B5860704700BFFC
:1014900000300040014B9860704700BF00300040B2
:1014A0004AF6AA22014B1A60704700BF0030004084
:1014B0004CF6CC42014B1A60704700BF0030004030
:1014C000014B1860704700BF20000E42014B1860AE
:1014D000704700BFA0000E42074B1A6842F004029A
:1014E0001A601A6842F002021A60044A136943F053
:1014F0000403136130BF70470070004000ED00E04E
:10150000034B5B68184214BF01200020704700BFE6
:1015100000700040024A136843EA80001060704780
:1015200000700040024B00221A701870704700BF14
:1015300002380240064B002201281A701A7002D0AD
:10154000042802D070471870704705221A7070473F
:101550007038024010B5029C5B0840EA0460014309
:10156000013B41EA821242EA0340014B586010BD40
:1015700000380240014B1860704700BF60004742CE
:10158000034A936823F0EC63194308439060704763
:1015900000380240034A936823F003031843906025
:1015A000704700BF00380240024B986800F00C0002
:1015B000704700BF00380240034A936823F0F003ED
:1015C00018439060704700BF00380240034A936898
:1015D00023F4E05318439060704700BF0038024086
:1015E000034A936823F4604343EAC0009060704765
:1015F000003802401D4A10B5936803F00C03042B19
:1016000003D0082B03D01A4B18E01A4B16E0516890
:10161000536811F4800F516814BF164A144A03F03E
:101620003F03B2FBF3F3114AC1F3881152684B43F5
:10163000C2F3014201325200B3FBF2F30B4A0360E2
:1016400093680D49C3F30313CC5C0368E340436024
:101650009468C4F382240C5D23FA04F484609268D5
:10166000C2F342328A5CD340C36010BD00380240EE
:101670000024F40080BA8C018401002000F440733F
:10168000094AB3F5407F01BF936820F0704123F40D
:10169000F81321F4407104BF0B439360136FC0F340
:1016A0000B0018431067704700380240014B186068
:1016B000704700BF3C0E4742044B1A6B09B1104300
:1016C00001E022EA00001863704700BF00380240C2
:1016D000044B5A6B09B1104301E022EA0000586341
:1016E000704700BF00380240044B1A6C09B1104328
:1016F00001E022EA00001864704700BF0038024091
:10170000044B5A6C09B1104301E022EA000058640E
:10171000704700BF00380240044B1A6A09B11043F9
:1017200001E022EA00001862704700BF0038024062
:10173000044B5A6A09B1104301E022EA00005862E2
:10174000704700BF003802404209012A074B01D10F
:101750001B6803E0022A0CBF1B6F5B6F00F01F00C9
:1017600023FA00F000F00100704700BF003802408B
:1017700007B5002301933120FFF7E6FF019B0133FA
:101780000193019BB3F5A06F01D00028F3D0312065
:10179000FFF7DAFF003018BF012003B05DF804FB4B
:1017A000024A536F43F0807353677047003802401A
:1017B00000230928DAB203F1010302D90A38C0B2C2
:1017C000F7E740EA0210C0B27047030903EB830356
:1017D00000F00F0000EB4300C0B27047002382B05E
:1017E00001930D4BDA68520613D44FF0FF32DA60E2
:1017F000D868019A00F0400001320192019AB2F5D6
:10180000803F03D1003018BF012003E00028EFD053
:10181000F8E7012002B0704700280040024AD36870
:1018200023F08003D36070470028004038B50F4C88
:10183000CA236362532363620546FFF7CFFF88B173
:10184000A36823F04003A360A2682B681343A3603E
:10185000AB68236123696A6843EA02432361FFF7A7
:10186000DDFF0120014BFF225A6238BD00280040F5
:10187000002382B001930E4BCA225A6253225A624D
:10188000DA6822F0A002DA60DA68019902F0200238
:10189000013101910199B1F5004F054901D0002AAC
:1018A000F2D0C868FF23C0F340104B6202B070470B
:1018B00000280040214B70B59B680D4620B913F0FD
:1018C000400324D1CB7022E013F0400300D1CB7051
:1018D00068782C780002AB7840EA0440EC78184332
:1018E00040EA0444154DCA236B6253236B62FFF731
:1018F00075FFF8B104F07F3020F0FE402860FFF75C
:101900008DFFFFF7B5FF003018BF012012E02878E7
:10191000FFF74EFF04466878FFF74AFF0646A878AF
:10192000FFF746FFEB7840EA034040EA044343EA0E
:101930000624D7E7014BFF225A6270BD0028004001
:101940000F4B70B51B680C46C3F30542C3F3062664
:1019500003F07F0503F480031B0C0A704E708D703A
:10196000CB7058B91046FFF730FF20703046FFF7B4
:101970002CFF60702846FFF728FFA07070BD00BFE5
:101980000028004070B50D4668BB4B78DA0603D5D9
:1019900023F010030A334B70E878FFF709FF044681
:1019A0006878FFF705FF0646A878FFF701FF2B7858
:1019B00040EA433040EA044343EA0624114DCA2377
:1019C0006B6253236B62FFF709FFB8B124F07F40CD
:1019D00020F0C0006860FFF721FFFFF749FF0030EB
:1019E00018BF01200AE04878CC7800028B7840EAE2
:1019F00004400C78184340EA4434DFE7014BFF22EF
:101A00005A6270BD002800400E4B70B55B680C46F2
:101A1000C3F30742C3F3042603F03F05C3F3423385
:101A2000CA704E708D700B7058B91046FFF7CDFE1E
:101A3000E0703046FFF7C9FE60702846FFF7C5FE2C
:101A4000A07070BD00280040264B2DE9F0419B6836
:101A50000D46164620B913F0400325D1D37023E07C
:101A600013F0400300D1D370B36870681843B378A3
:101A70001843337840EA0340737840EA0320F37850
:101A800040EA0340337B40EA0360164BCA225A62A5
:101A900053225A62B5F5807F4FF0FF020CBFD86128
:101AA00018625A62BDE8F0813078FFF781FE804607
:101AB0007078FFF77DFE0746B078FFF779FE0446A1
:101AC000307BFFF775FE7268B3681343F27843EA20
:101AD0000243234343EA084444EA072444EA0060FB
:101AE000D3E700BF00280040002382B00193134BCE
:101AF000CA225A6253225A629A6819B110439860F6
:101B0000012016E022EA00029A60000ADA680199D0
:101B10000240013101910199B1F5803F06D1074B97
:101B2000DB68184214BF0120002002E0002AEDD03B
:101B3000F5E7024BFF225A6202B0704700280040CE
:101B400082B000230193054B0193019B03EB8000BE
:101B50000190019B196002B0704700BF50280040FF
:101B600082B000230193054B0193019B03EB80009E
:101B70000190019B186802B0704700BF50280040D8
:101B80000E4BCA2210B55A62532220F004045A6246
:101B900000F0040031B1996844EA01029A601A6CBD
:101BA000104306E09A6822EA04029A601A6C22EA5C
:101BB00000001864014BFF225A6210BD002800404B
:101BC000054A80B2D36840F0800003F0800363EAE6
:101BD0000003D360704700BF002800400A4910B5D9
:101BE0000B6C8A6803F00403CC6803EAD03100EA86
:101BF00002030B4306D0A3B213EA101314BF012053
:101C0000002010BD184610BD00280040054AC0F352
:101C10000F10D36840F0800003F0800363EA0003F4
:101C2000D36070470028004008B54FF400600121E0
:101C3000FFF77EFDBDE808404FF400600021FFF78C
:101C400077BD00008368416810B51943C368084C2C
:101C500019430368626819430369194322F4FD4379
:101C600023F07F03027D0B431343636010BD00BF6D
:101C7000002C0140014B1860704700BFA080254236
:101C8000044B1A6822F003021A601A6810431860A5
:101C9000704700BF002C0140014B1860704700BF27
:101CA000A885254208B5154B98420BD14FF48050BA
:101CB0000121FFF73DFDBDE808404FF480500021B1
:101CC000FFF736BD0E4B984207D14FF480400121FB
:101CD000FFF722FD4FF4804009E00A4B98420BD1F8
:101CE0004FF400400121FFF717FD4FF400400021A1
:101CF000BDE80840FFF710BD08BD00BF003001403F
:101D000000380040003C004003884A8810B503F4C6
:101D100041540B8813438A881343CA8813430A89A2
:101D200013434A8913438A891343CA8913432343BC
:101D30009BB20380838B23F400631B041B0C8383FF
:101D40000B8A038210BD038819B19BB243F0400394
:101D500003E023F040031B041B0C038070478089C1
:101D600080B2704783889BB20AB1194301E023EA2D
:101D70000101818070470389194214BF01200020AE
:101D8000704701F0030301F0FC0101F1804101F50E
:101D90009C3110B59B008C680F229A4024EA020205
:101DA0008A608A68984002438A6010BD1C4A038892
:101DB00090429BB212D002F5806290420ED0B0F1F8
:101DC000804F0BD0A2F58032904207D002F580629E
:101DD000904203D002F58062904203D14A8823F0FA
:101DE000700313430F4A904208D002F5806290427C
:101DF0001FBF23F440730A899BB2134303804B68CF
:101E0000C3620B880385064B984203D003F58063B9
:101E1000984201D18B7A038601238382704700BFE9
:101E20000000014000100040018582827047C162BD
:101E30007047038819B19BB243F0020303E023F01B
:101E400002031B041B0C03807047038819B19BB26B
:101E500043F0800303E023F080031B041B0C03808A
:101E60007047038819B19BB243F0010303E023F0EC
:101E700001031B041B0C038070470000038C70B52A
:101E800023F001031B041B0C0384038C8488028B46
:101E90000E8822F073021204120C23F0020516437E
:101EA0004B888A892D0413430F4A2D0C2B439042F3
:101EB000A4B29BB203D002F5806290420ED1CA89CF
:101EC00023F0080313438A8823F0040313434D8A45
:101ED0000A8A24F4407415432C43A4B28A6884808F
:101EE00006834263038470BD00000140038C30B55B
:101EF00023F010031B041B0C0384038C8588028BC6
:101F00000C8822F4E6421204120C42EA042223F066
:101F1000200394B21B048A891B0C43EA02134A88EB
:101F2000ADB243EA0213124A9BB2904203D002F5CB
:101F30008062904215D123F08003CA899BB243EAA4
:101F400002124FF6BF7313408A8825F4406543EAB6
:101F500002130A8A9BB245EA82054A8A45EA82054B
:101F6000ADB28A68858004838263038430BD00BF7C
:101F700000000140038C30B523F480731B041B0C5C
:101F80000384038C8488828B0D8822F073021204F0
:101F9000120C23F4007315431B048A891B0C43EABB
:101FA00002234A88A4B243EA0223124A9BB2904217
:101FB00003D002F58062904215D123F40063CA89F0
:101FC0009BB243EA02224FF6FF3313408A8824F47F
:101FD000405443EA02230A8A9BB244EA02144A8A22
:101FE00044EA0214A4B28A6884808583C2630384AD
:101FF00030BD00BF00000140038C30B523F4805396
:102000001B041B0C0384038C8488828B0D8822F4B0
:10201000E6421204120C23F4005342EA05221B0488
:102020008D891B0C43EA05334D88A4B243EA05337E
:102030000A4D92B2A8429BB203D005F58065A84232
:1020400005D10D8A24F4804444EA8514A4B2848026
:1020500082838A680264038430BD00BF00000140AF
:102060004163704781637047C16370470164704783
:10207000038B23F008031B041B0C194301837047D7
:10208000038B23F400631B041B0C43EA012189B278
:1020900001837047838B23F008031B041B0C194337
:1020A00081837047838B23F400631B041B0C43EA7A
:1020B000012189B281837047B0F8443029B16FEAB9
:1020C00043436FEA53439BB201E0C3F30E03A0F80E
:1020D0004430704783899BB20AB1194301E023EA77
:1020E000010181817047038A828911EA030092B25B
:1020F00003D0114214BF012000207047C94389B2A8
:102100000182704708B5234B984205D11020012168
:10211000FFF70EFB102037E01F4B984207D14FF41A
:1021200000300121FFF7F8FA4FF4003009E01B4BB3
:1021300098420BD14FF480200121FFF7EDFA4FF4C4
:1021400080200021BDE80840FFF7E6BA144B984212
:1021500007D14FF400200121FFF7DEFA4FF40020F1
:10216000EFE7104B984207D14FF480100121FFF7A1
:10217000D3FA4FF48010E4E70B4B984209D12020AA
:102180000121FFF7D5FA20200021BDE80840FFF724
:10219000CFBA08BD00100140004400400048004094
:1021A000004C004000500040001401407FB50E4636
:1021B0000446038ACA889BB223F440531343038224
:1021C000838909899BB223F4B05323F00C02B388AE
:1021D0000B4371890B439BB213438381838AB2897A
:1021E0009BB223F44073134383826846FFF702FADD
:1021F0001B4B9C4203D003F580639C4201D1039D9D
:1022000000E0029DA389A2891BB2002B4FF01903A5
:1022100003FB05F335684FF06406B4BF6D00AD00F5
:10222000B3FBF5F5B5FBF6F00001010906FB115310
:1022300012B2002AADBF1A01D90032313232B5BF15
:10224000B1FBF6F2B2FBF6F302F0070203F00F0364
:10225000B4BF1043184380B2208104B070BD00BFEA
:1022600000100140838919B19BB243F4005303E08D
:1022700023F400531B041B0C83817047C1F3080136
:10228000818070478088C0F308007047038A23F07C
:1022900020031B041B0C0382038A9BB21943018297
:1022A0007047038A19B19BB243F4804303E023F4DF
:1022B00080431B041B0C0382704710B5C1F342140A
:1022C000012301F01F01012C03FA01F301D10C30AD
:1022D00003E0022C0CBF1030143012B1026813431B
:1022E00002E0026822EA0303036010BD038819427A
:1022F00014BF012000207047012310B5C1F3421420
:1023000001F01F029C4203FA02F201D1838903E02B
:10231000022C0CBF038A838A9BB21340028892B2BC
:102320003BB1090A01238B40134214BF0120002056
:1023300010BD184610BD00000A4A00B513680A49CE
:10234000184488428BB008D9684629F07FFA074BB9
:102350000C221A604FF0FF3001E0106018460BB0FD
:102360005DF804FB94010020F8FF012084A4002004
:102370000020704700207047F0B5094D2B687F2B77
:102380009FBF0C245C43074F01339FBF3E19385158
:10239000716000209ABFB2602B604FF0FF30F0BD3B
:1023A0002C0800203008002008B505480AF06FFE10
:1023B000BDE808400348044900220AF002BF00BFFC
:1023C000400E0020848A0020FD2902082DE9F843F0
:1023D0007F4D80462B680F4691460468002B00F025
:1023E000F580531E012B7B4E2CD8346874B17A488B
:1023F000396822460AF0E5FE30B1D4F84080204624
:1024000028F07EFF4446F1E7246CEFE72A68724823
:1024100082F839903968DFF8B8810AF0D2FE28B125
:10242000D8F8000028F06CFFC8F800406B4C20681A
:1024300028F066FF0023236033606948BDE8F84355
:102440000AF05DBE94F83430012B7CD13368002251
:102450007BB393F8210094F82110884226D193F899
:10246000220094F82210884220D193F8230094F897
:10247000231088421AD193F8240094F8241088423B
:1024800014D193F8250094F8251088420ED193F8C2
:10249000260094F82610884208D112B1196C1164F4
:1024A00000E03260184628F02BFF02E01A461B6C51
:1024B000CEE74A4B4B481B680268062101FB0231FC
:1024C0008B4228D293F800E094F82160B64520D1E1
:1024D00093F801E094F82260B6451AD193F802E02F
:1024E00094F82360B64514D193F803E094F824607F
:1024F000B6450ED193F804E094F82560B64508D1AE
:1025000093F805E094F82660B64502D1D8F80000AB
:1025100043E00633D4E7632ADFBF54F8211F0132BA
:102520001960A188DCBF026099802B4839682A684D
:102530000AF047FEC8B3D8F8000028F0E1FE0023F7
:10254000C8F8003031E03268134600E01B6C53B32A
:1025500093F8210094F821108842F7D193F82200D3
:1025600094F822108842F1D193F8230094F82310B4
:102570008842EBD193F8240094F824108842E5D1E6
:1025800093F8250094F825108842DFD193F82600AF
:1025900094F826108842D9D12046BDE8F84300219E
:1025A000392228F0F9BE22643460442028F0A0FECD
:1025B0000446286040B10021442228F0EDFE0023AB
:1025C00084F839307B68E363C8F80040BDE8F883DD
:1025D000300E00203C0E0020848A0020380E00209F
:1025E0005C0E00204C0E002010B5094C2378012B06
:1025F0000CD100200BF05CF806480AF0C2FC05483C
:10260000054900220AF0DDFD0023237010BD00BF44
:10261000500E0020848A0020C5D6020838B5074D28
:102620002C784CB920460BF039F80548054922466C
:102630000AF0C7FD01232B7038BD00BF500E0020EB
:10264000848A00202DD7020870B5857F044616467F
:10265000002D6FD14368102B12D002DC062B50D016
:1026600068E0132B02D02E2B4ED063E08368002B42
:1026700060D1314B1B78012B5CD10BF09FF859E0F6
:102680004388DB073DD52D4B2D4A1B68934234D040
:1026900014DC2C4A934230D007DC002B4ADB012BA0
:1026A00039DD48F20102934225E0274A934224D0C3
:1026B0000DDD264A934220D0023214E0244A934290
:1026C0001BD00BDCA2F50012934216D001DC023ABB
:1026D00009E0204A934210D01F4A04E0B3F1805F22
:1026E00019D003DC1D4A934224D106E01C4A9342D0
:1026F00011D0B3F1005F0ED01CE01A480AF0A6FC1E
:1027000018E0FFF771FF15E016480AF0C0FCA36857
:10271000B3F5837F02D1FFF781FF0BE0B3F5847F30
:1027200008D040F20512934204D00F480F492A46C0
:102730000AF047FD304670BD500E00209801002081
:1027400006004000020020000600200002004000B9
:10275000040040020600200202004002060040027F
:1027600004000010400E0020848A0020FD29020889
:1027700010B5074C2378012B08D001F043FB30B98A
:102780000AF0FAFC18B90123237010BD002010BD17
:10279000510E002030B5234D85B02B78012B3CD055
:1027A0000AF02CFE014600283AD14FF453730093EF
:1027B00003A803220B4600F04BFB88BB03980021C3
:1027C0000278012A14BF45F25534D0F8404300F096
:1027D0005AFB204600210CF019FD08BB12480AF0F4
:1027E0008CFCE8B910480AF08AFC0346C0B90F48CF
:1027F00040F6B8310E4A0AF00DFC044678B90120C3
:102800000DF09AFA05200DF0ABFA0A200DF0BCFA93
:1028100001232B70074B1C6001E0002000E02046E4
:1028200005B030BD600E00205C0E0020400E002080
:10283000A9230208340E0020014B1878704700BF0E
:10284000600E0020F7B5064610461F460D4614469A
:1028500029F00DFE0097C3B22946304622460EF0FD
:1028600079FE03B0F0BD0EF0E7BB00002DE9F043A8
:10287000044688469146054693B003AF00F13803FD
:102880003E4628686968083503C69D423746F7D139
:1028900094F82130BBB994F82230A3B994F82330CE
:1028A0008BB994F8243073B994F825305BB994F857
:1028B000263043B994F92D30D4F82E10012B1ED1B7
:1028C00041F000511BE094F83230002BF2D000238D
:1028D000009303A8494642460DF0C2FD0028E9D105
:1028E0000D4B01221A70D4F82E200C4B0C481A60A4
:1028F00000220C4913460CF045FA002008E00023A2
:10290000009320464A4643460DF014FD0028E7D0C8
:1029100013B0BDE8F08300BF500E002098010020E6
:1029200048EF0408492602082DE9F043284FA3B0D8
:10293000B84603261D243B78002B45D101254FF0D6
:10294000790998F8003003F0FF01002B3AD1CDF857
:10295000009002A803222B4600F07AFAA8BB029846
:1029600003782BB390F8381000F13902FFF77EFF9F
:102970000446E8B9029991F83830402B18D0D1F8C4
:102980002E309B0014D4792203A828F0DFFC0DF12F
:1029900045009DF8441002460DF06EF840B9402302
:1029A0008DF8443003A803212A46792301F038FC2E
:1029B0000298002100F067FA34B140F25E237935C5
:1029C0009D42BED1013EB6D1204623B0BDE8F08382
:1029D000B88A002010B50446002106480A4623465E
:1029E0000CF0D0F920460CF0BFFE0CB9024B1C7065
:1029F000002010BD48EF0408500E0020F0B5002064
:102A0000B3B0FFF7E7FF032601257923009303A85E
:102A1000002103222B4600F01BFA00287DD1039CE5
:102A20002378002B6BD0234604AF04F1380E3A46CE
:102A300018685968083303C273451746F7D194F8EC
:102A40002130E3B994F82230CBB994F82330B3B9EC
:102A500094F824309BB994F8253083B994F8263043
:102A60006BB903980022D0F82E1090F838300092FD
:102A700000F139020DF05EFC002840D10EE094F820
:102A80003230002BEDD0002394F8382004A80093B6
:102A900004F139010DF0E4FC0028E2D1FFF7BEFD9E
:102AA000039B1F49D3F82E201E4B1F481A6000229B
:102AB00013460CF067F9039991F83830402B18D081
:102AC000792213A828F042FC0DF185009DF88410AE
:102AD00002460CF0D1FF014658B9039800F0D3F933
:102AE00040238DF8843013A803212A46792301F06E
:102AF00097FB0398002100F0C6F900200DE0039831
:102B0000002100F0C0F940F25E2379359D427FF448
:102B10007CAF013E7FF478AF1E2033B0F0BD00BF24
:102B2000492602089801002048EF04082DE9F04FDB
:102B300093B00AAA05460F469046364B03F1180695
:102B4000144618685968083303C4B3422246F7D1C3
:102B500018689B8806AEA3802F4B20600FCB86E8B9
:102B60000F002E4841F288310AF0D3FA044620B112
:102B70002A480AF0C4FA204649E0294B294C18603B
:102B8000294B1860206808B128F0BAFB4FF4167082
:102B900028F0AEFB2060B0B300214FF41672DFF8CE
:102BA00090B028F0F9FB44208BE8A00028F0A0FBAF
:102BB000DFF880908246C9F80000F8B10021442275
:102BC00028F0EAFB194B00250293CDF8008001960E
:102BD000CDF80C90CDF810B00595284602212A4674
:102BE0002B468AF83950CAF83C700CF011FD70B1D0
:102BF000D9F8000028F084FBC9F80050206828F0BC
:102C00007FFB0023236005480AF079FA042013B003
:102C1000BDE8F08F18EF040838EF04085C0E0020C0
:102C20003C0E0020380E00204C0E0020CD23020860
:102C3000540E0020300E0020F7B50C4E074601A8B8
:102C40000AF0A6F901993368094ACB1A07D0D2E9EC
:102C50000045E41845F10005C2E900453160002057
:102C60000CCAC7E9002303B0F0BD00BF640E00200A
:102C7000680E0020C0B2A0F13003DBB2092B01D8EE
:102C80000B700BE0A0F14103052B01D8373804E0AD
:102C9000A0F16103052B03D857380870002000E02D
:102CA000FF2040B2704700002DE9F04F07468846EC
:102CB000054685B0164699469DF838201D4B00EB19
:102CC000010BC7EB050C5D458DE80C005FFA8CFA33
:102CD0002BD015F9010B0DF10F01FFF7CBFF28BB2E
:102CE0009DE80C007AB13068B0F1006F05D3B9F1FE
:102CF000000F1BD0B0F1805F18D29DF80F1001EBD0
:102D000000113160DDE79DF80F1009290ED83468F5
:102D10000948844204D9B9F1000F07D09C4205D874
:102D20000A2000FB04143460CBE7C246504605B0CD
:102D3000BDE8F08F99999919CCCCCC0C37B530B14E
:102D40000024009314600123FFF7AEFFFFE703B0F8
:102D500030BD0000F0B5174F85B005460E46386807
:102D6000796801AC03C40A2B398928BF0A23218062
:102D70001C460A216DB164B1013C04A8E4B20719F4
:102D8000B5FBF1F001FB1055303507F80C5C05463A
:102D9000F0E79A1AA242B8BFD4B21D1B01AB1919B1
:102DA00030462A4628F0D2FA0023E8B2735505B01F
:102DB000F0BD00BF58EF0408F7B50D460027461ECA
:102DC0004F6004246B6801361B026B6030460321A0
:102DD00001AA00230197FFF7B1FF80B130466A686E
:102DE000019B13446B60064610F8013B0BB12E2B80
:102DF000F9D1013C14F0FF0404D0002BE2D14FF0D4
:102E0000FF3002E0204604232B6003B0F0BD000039
:102E100010B50E480021142228F0BEFA0B4C09F020
:102E2000FBFF002354F8231029B10A684968821A6D
:102E30008A4200D9FEE70133052BF3D100F0ECFF05
:102E400041F288300AF057F9E9E700BF700E002020
:102E5000F8B50129054616461C46069F0AD1384694
:102E600028F046FA286060B1314622463B4601F020
:102E7000C9F904E0104601F049F820442860002018
:102E8000F8BD0420F8BD012908B501D128F038FAB1
:102E9000002008BD134B102283F80323202283F85F
:102EA0003123302283F83B23602283F8252383F8E3
:102EB0002623702283F8462383F83A2383F81123CC
:102EC00083F81023E02283F8062383F8072383F88E
:102ED000082383F8092383F80A2383F8172383F848
:102EE0002823704700E100E070B50F4C032104F186
:102EF000800604F18805304601F044FD0321284690
:102F000001F040FD304601F0DFFC284601F0DCFC1A
:102F100004F11000002101F035FD04F1080000214A
:102F2000BDE8704001F02EBD94EF040800BA704770
:102F300000F1F00300F501701A78FF2A07D08A42E9
:102F400007D0834207D25A7802321344F4E7FF29AC
:102F500001D1981C70470020704700002DE9F8430C
:102F600004460E46DFF83C8000254FF0060909FBB9
:102F700005802146062228F0D9F9074650B9084BAA
:102F8000142404FB05340FCC0FC623683846336085
:102F9000BDE8F8830135052DE9D10C20BDE8F883A3
:102FA000DC0E0020BC0E00202DE9F04F8046C34B04
:102FB000B3B018689A880F9053F8060FADF8402008
:102FC0009B8821221190002129A8ADF8483028F0D3
:102FD000E3F9FC2315A98DF8A43098F825001F23E8
:102FE0008DF8A5300AF038FF1698FFF79FFF1AA951
:102FF000814698F825000AF0C1FF1B9C2046FFF788
:1030000095FF32AB43F8A00D1868E343169D039378
:1030100005EA04030493039B01351D40049BCDF88E
:103020003E001D43A64B0DF1A60203F11C0153F80F
:10303000040B8B4242F8040BF9D119889B7811805C
:103040009370032213460DF1AD015FFA89F0CDF8BC
:103050003890FFF77FFE03222E2413460DF1B101B5
:103060009DF839008DF8B040FFF774FE0322134637
:103070000DF1B5019DF83A008DF8B440FFF76AFEF6
:10308000032213469DF83B000DF1B9018DF8B840BD
:10309000DFF844A2FFF75EFE002388F8243098F89A
:1030A000243008F104063046002B40F0C18108A905
:1030B0004FF0FF320AF020FF01460028EFD107ABA6
:1030C000009308980DF11A030BAA0AF055FE0B980D
:1030D00090F8F230012B03D0032B00F08480A3E1A1
:1030E0000CAB009330464FF4017109AA0DAB0AF006
:1030F00026FE0446002840F097810B99F1220D9896
:1031000028F024F908980AF021FE0D98022200F810
:10311000F02B214640F2131228F03EF90B9B24A914
:1031200053F81C0F1F909B881FA8ADF88030FFF745
:1031300015FF10B1042324932595259806F0C0F8B7
:10314000604A0D9B126813901398C3F8EC205E4AF6
:10315000CDF8469011889278186183F8F22032AA4F
:1031600052F8840DA3F8F0109188C3F8F300A3F887
:10317000F71056490DF1A40E08688988C3F8F900C4
:10318000A3F8FD100F98BDF84010C3F8FF00A3F896
:10319000031103F205140DF1C40C774603CF674504
:1031A00020606160BE4604F10804F6D139782170D0
:1031B00010689288C3F82C01A3F82A21A3F83021C3
:1031C000062283F82C21424A03211268C3F8260103
:1031D000C3F83221FF2283F8261183F8362109989B
:1031E00003F2371113E13621FFF7A2FE30B1006878
:1031F000FFF79CFE169C84427FF451AF0DF11E0335
:10320000009330464FF4017109AA0DAB0AF097FD07
:10321000002840F0098105900B99F1220D9828F0C3
:1032200095F80B9904270A4652F81C0F13909288C0
:1032300008463221ADF850202497FFF779FE006848
:1032400006F040F8259008980AF080FD0D9C059B3B
:10325000A34602220BF8F02B1946584640F21312EF
:1032600028F09AF8174B13A81B681FA9C4F8EC3074
:10327000FFF774FE18B11F972095012700E007465D
:1032800025A820A9042228F051F838B3114BCDF815
:1032900046901A889B78A4F8F02011988BF8023099
:1032A000BDF84830C4F8F300A4F8F7300D980021B9
:1032B00004221030F93428F06FF8A3E08CF00408F1
:1032C000A1F00408DCF0040898F004089BF004085E
:1032D000D2F00408CCF00408BC0E00205D4BCDF801
:1032E00046901A889B78A4F8F0208BF80230BDF83D
:1032F00048301198A4F8F730574BC4F8F3001A6817
:103300009B880F98A4F8FD30BDF84030C4F8F92030
:10331000A4F80331C4F8FF000DF1A40E04F2051364
:103320000DF1C40C724603CA624518605960964696
:1033300003F10803F6D1127804F59B741A70BDF8F6
:103340004830119824F80C3C24F8063C062344F835
:103350000A0C04F80A3C414B03221B6844F8100C89
:1033600044F8043C04F8102C209805F0A9FF0C90B8
:103370000C980D9B012F186107D1169B039A0135FC
:103380001540049A15439D42F8D005274FF0000BD5
:10339000334B062202FB0B3C13A96046CDF814C048
:1033A00027F0C4FFDDF814C020B92E4A142707FB0C
:1033B0000B271FE0052F07D160462B49062227F077
:1033C000B5FF002808BF5F460BF1010BBBF1050FED
:1033D000DED1052F34D006237B4332AA52F87C0D70
:1033E0000AEB03014AF80300938814228B801D4BDB
:1033F00002FB07370DF17C0EBEE80F000FC7DEF8A9
:1034000000303B602146FF2301F8013B09980AF098
:10341000A2FC304615494422099B0AF047FE0028C9
:103420003FF43DAE099800E008980AF08FFC36E6BC
:103430000AF086FD002002F04BF833B0BDE8F08FB3
:103440001398BDF85030CAF80000AAF80430054FB0
:10345000D0E700BFCFF004089BF00408D2F00408C6
:10346000BC0E0020DC0E0020D6F00408F4F804089E
:1034700037B504460D4684F825101E2200210E485B
:1034800027F08AFF002164220C4827F085FF2A4696
:10349000201D43210AF0F2FC054648B94FF4A06311
:1034A0008DE8180020460521054A064B09F042FD2B
:1034B000284603B030BD00BFBC0E0020DC0E00204B
:1034C000C1F00408A92F0208012310B580F82430A8
:1034D000044609F04CFD40B1204609F052FD20465B
:1034E00009F007FE204609F037FD002010BD00005E
:1034F00084B030B503AC84E80F000B4A1368012B8D
:103500009FBF591C1160094A14249FBF04FB032468
:1035100003AD0FCD0FC49DBF2B6800202360042096
:10352000BDE8304004B07047680F0020400F002015
:1035300008B500212822034827F02EFF024B002067
:10354000186008BD400F0020680F002043890289E1
:10355000013393420CDA43680A0A1A7043685970BF
:10356000436802334360438902334381002070473C
:103570001F207047426813784BB113F0C00F02D080
:10358000531C436003E0013313444360F2E7436894
:103590000133436070472DE9F8430E460546024665
:1035A0000020117881B111F0C00F15BF5378431C72
:1035B00003EB01225B1815BFC2F30D020131921912
:1035C00098B208BF5218ECE758B327F091FE0446B2
:1035D00003464FF02E092A7812B312F0C00F0AD01A
:1035E000297811F0C00F06D06A7802EB0125C5F3E7
:1035F0000D053544F4E72F7805F1010818463A46E1
:10360000414627F0A3FE034618F807203B4408EB89
:1036100007051AB183F800900133DCE71A70DAE786
:103620002046BDE8F8832DE9F843894604460C2579
:103630000021904600682A461F4627F0ADFE484606
:10364000266805F037FE30804046266805F032FED9
:1036500070803846266805F02DFEB080BDF8240045
:10366000266805F027FE3081BDF82000266805F0A9
:1036700021FEF080BDF82800266805F01BFE00231F
:103680007081A572E372BDE8F88370B591F90030DE
:10369000C3B10E46421C3578741A2E2D3346E4B25F
:1036A00006F1010607D1047093F9000019462E288F
:1036B00006D1591C04E0002DF5D002F8015BEAE7C1
:1036C0001046E3E770BD70B5044608460E4628F084
:1036D000CEFE6389228902331844904210D83146C5
:1036E0006068FFF7D2FF0025431C63600570304619
:1036F00028F0BDFE6389023318446081284670BDFE
:103700001F2070BDE0B5054616461F46FFF7DBFFDC
:1037100050B928463946FFF719FF28B928463146DF
:10372000BDE8E040FFF712BFE0BD008805F0C2BD74
:10373000006805F0C5BD38B5044643680D46136002
:1037400003685360FFF716FF6068FFF7EEFF2880FD
:1037500060680230FFF7E9FF688060680430FFF7B7
:10376000E7FF686060680830FFF7DFFF2881636863
:103770000A331844C5F80A30606038BD2DE9F04FAF
:103780008346ADB0069104920021142219A827F0B7
:1037900003FE584628F06BFE002105460A4624A881
:1037A0000AF06CFB824610B14FF0040A97E1049BCB
:1037B000ADB2002B00F05E8156461035DFF8FC827A
:1037C000ADB2D8F800309E426ED214AC29460094B7
:1037D00024A811AA16AB0AF0B2FA0146002857D164
:1037E000BDF85030ADF86200ADF86030169B009027
:1037F0000C331793019002904FF4807216A80123A6
:10380000FFF711FF01221346594616A8FFF77AFF6A
:10381000179911980AF09FFAA74B142707FB063750
:1038200024A839463522119B0AF040FC50BB1EA942
:1038300001220AF039FC48BB2946009424A811AAA9
:1038400016AB0AF07CFA014610BB169B00900C33B5
:103850001793019002904FF4807216A80123FFF78E
:10386000E2FE01221C23594616A8FFF74BFF1799C9
:1038700011980AF070FA24A839463522119B0AF0F3
:1038800015FC18B111980AF061FA01E0013698E7C9
:1038900000246FF00048D9460B940794CDF824809B
:1038A0000A9408940594F0E0D94600246FF000488B
:1038B0000B94CDF824800A9408940794059412A8D8
:1038C000FFF7BAF924A811A9049A0AF015FB0546D6
:1038D000002840F0A8800DF1420316AE0093324656
:1038E00010AB119829460AF047FA169B03F10C0217
:1038F00017925B88DBBA002B80F29180169B9B8825
:103900005BBA9BB29D4207D23046FFF733FE179B4E
:10391000013504331793F1E700252F46169BDB880A
:103920005BBA9BB29F425BD216A81EA914AAFFF7EE
:1039300002FFBDF87860052E0DD01C2E17D0012E89
:1039400045D1DDF882303546186805F0B9FC04230E
:10395000089009933DE0D94502D0484627F0D0FCB5
:10396000DDF882001599FFF716FE81462FE0059BD2
:10397000DDF882606BBB308805F09CFC04467088E3
:1039800005F098FC40EA0443B0880A9305F092FCE5
:103990000446F08805F08EFC40EA04433089079322
:1039A00005F088FC0446708905F084FC40EA044375
:1039B000B0890B9305F07EFC0446F08905F07AFC93
:1039C000012340EA04444FF00608059302E0002377
:1039D00000E001230137002BA0D00127002601E0E1
:1039E0000027FBE7169A13895BBA9BB29E420BD263
:1039F00016A8FFF7BFFD179A013613895BBA9BB271
:103A00000A3313441793EDE74FB9528952BA92B271
:103A10002AB123B116A81EA914AAFFF78CFE11988B
:103A20000AF094F900E000251EA8FFF705F9DDE98A
:103A30001E01DDE91223CDE90C23821A61EB030399
:103A400016461F46CDE90E67049E00233246DDE987
:103A50000E67BB4208BFB24229BF0C9B00231A1A53
:103A6000049B28BF9B18049385B9049B002B7FF40B
:103A700026AF0AE0D94604466FF000480B90079045
:103A8000CDF824800A9008900590002524A80AF01B
:103A900057FAD94502D0484627F032FC012D0FD104
:103AA000099B069C1993089B19AD1A930FCD0FC45F
:103AB0002B68236013E000BF400F0020680F002038
:103AC000059B012B7FF470AE069B1A46C3F800805D
:103AD0000A9B14615360079B93600B9BD360504615
:103AE0002DB0BDE8F08F00BF73B50E4604463521FA
:103AF000043032460AF0C2F9054670B94FF48063CB
:103B000020708DE8180084F8286004F12400052155
:103B1000044A054B09F00EFA00E00425284602B0DD
:103B200070BD00BFECF00408993B020810B50446D4
:103B3000012304F8243B204609F019FA40B120463D
:103B400009F01FFA204609F0D4FA204609F004FAD9
:103B5000002010BD2DE9F04180460E461746002595
:103B6000EBB2BB420ED206EBC3021479404656F8C4
:103B70003310224627F0DAFB01350028F0D1204629
:103B8000BDE8F0810020BDE8F0810000014910226D
:103B9000FFF7E0BFB4F104082DE9F0410746DFF874
:103BA0000C8190B0061D3B783046002B76D104A9DD
:103BB0004FF0FF320AF0A0F904460028F3D106A91D
:103BC0000DF10E0204980AF061FA03AB009321464E
:103BD00005AA0DF10A0304980AF0CEF8059B5A884D
:103BE000998852BA95B25A8012B249BA002A88B25C
:103BF00099801DDB15F4F0451AD1C8B120229A70C6
:103C00006FF07B02DA7003F10C0401221A715D710E
:103C10009A71DD711D725D72204612F03BFE002824
:103C200006DD059B0444BDF80A20E11A914203DD3C
:103C300004980AF08BF8B6E79D72DD72D8F8003070
:103C40000BA96360D8F80430A360D8F80830E360AB
:103C50000C23637197F828000AF0FEF80C9B059A74
:103C60001BBA2361538804F114015BBA5380938813
:103C700004985BBA9380D3885BBAD38013895BBA0C
:103C8000138153895BBA53810AF065F8304606A95F
:103C9000BDF80E20049B0AF009FA84E70AF050F9F7
:103CA000002001F015FC10B0BDE8F081E0F0040840
:103CB00031498D46214B224A22489A60224A2349A3
:103CC000D368884243F08073D360214B4FF00002E9
:103CD0005A601A6842F001021A6005D01D4A8242F9
:103CE00002D0121A27F032FB00F0F0FA00F023FBAA
:103CF00019481A49884205D0194A824202D0121A3C
:103D000027F024FB1748184A0021121A27F044FB19
:103D100000F012FBFFF7E8F8144B154C1E46E41AAE
:103D2000A4080025A54204D056F82530984701354F
:103D3000F8E709F0CBF80F4A004BDA6000ED00E03D
:103D40000000020884010020F0ED00E0B82309081B
:103D5000001000E08401002084010020B82309083D
:103D6000240800202808002088A400200023090837
:103D7000A82309080400FA0500AA002042F20F71E6
:103D800082B000230093009AB2F57A7F0CD201939F
:103D9000019A8A4204D800BF019A01320192F7E7E2
:103DA000009A01320092EEE7014A024BDA60FEE728
:103DB0000400FA0500ED00E0034B5868C0F308006A
:103DC000003018BF0120704700ED00E030B54468B6
:103DD000A14209D8027852B98068039D0844641A48
:103DE00028601C60104630BD40F6A17030BD072031
:103DF00030BD08B5037813B1084627F081FA0020DA
:103E000008BD000008B500F08CFF024B00201870C0
:103E100008BD00BF6C0F002000F080BF01280348E0
:103E200001D100F051BD00F041BD00BF74EF0408A6
:103E30007047000010B5054C0321204600F0A2FD9C
:103E4000204600F041FD002010BD00BF7CEF0408BB
:103E500008B50BF029F9012801D1FFF7EBFF032189
:103E6000034800F08FFD024800F02EFD002008BD41
:103E700074EF04080048704708330808004870478A
:103E8000F4F5040810B50C4610B9FFF7F3FF01E094
:103E9000FFF7F4FF00B140682060002010BD10B5AE
:103EA0000C4610B9FFF7E6FF01E0FFF7E7FF836874
:103EB0000020236010BD000008B5124B98421A463E
:103EC00009D1002352F82310013113D10133B3F586
:103ED000805FF7D10CE00C4B98421A4608D10023C2
:103EE00052F82310013107D10133B3F5805FF7D1C8
:103EF000002008BD082000E01020014600F07EFCF4
:103F000008BD00BF004000080080000870B5164BD7
:103F10000546B3F908201E46B2F5807F134C07D141
:103F2000D968134A914203D154F82000184470BD57
:103F3000104AB2F90830B3F5807F07D1D1680C4B35
:103F4000994203D154F82500104470BD0820014661
:103F500000F054FC08494FF4C272034800F069FCB9
:103F600054F82530F01870BD0040000804F604082D
:103F70004252434D0080000818F6040870B506460A
:103F8000E2B00420FFF7C2FF044600214FF4C272E2
:103F900001A827F001FA01238DF80D301E4B1F4DAB
:103FA00004931F4BAC4208BF1D462846FFF784FF11
:103FB00005F5C27004F5C2711A4A00F03AFC38BB2C
:103FC000A37A31468DF80E30D4F8803150226193B7
:103FD000E37A05A88DF80F3027F0B8F904F16001F5
:103FE0004FF4907219A827F0B1F9284601A94FF4AF
:103FF000C27200F01EFC064628B12846FFF75CFF9F
:104000006FF0040006E02046FFF756FF304601E05F
:104010006FF0010062B070BD4252434D0040000895
:10402000008000087C3E00002DE9F0418046E2B0AF
:1040300004200F461646FFF769FF044600214FF49F
:10404000C27201A827F0A8F901238DF80D30244B86
:10405000244D0493244BAC4208BF1D462846FFF76D
:104060002BFF05F5C27004F5C271204A00F0E1FB98
:1040700080BBA37A04F110018DF80E30D4F88031A2
:1040800050226193E37A05A88DF80F3027F05EF98E
:1040900004F160014FF4907219A827F057F901ABB1
:1040A0002422724303EB0800394627F04FF92846D3
:1040B00001A94FF4C27200F0BCFB064628B12846A5
:1040C000FFF7FAFE6FF0040006E02046FFF7F4FE6B
:1040D000304601E06FF0010062B0BDE8F08100BF42
:1040E0004252434D00400008008000087C3E000022
:1040F0002DE9F04F8146E3B0042017468A46FFF7CA
:1041000005FF002105464FF4C27201A827F044F9CB
:10411000384C01238DF80D3007EB0908364BA045CC
:1041200004935BD805EB090051463A4627F0FEF8A8
:1041300000285BD0314B324EA9F5C27BB54208BF97
:104140001E463046FFF7B8FE06F5C27005F5C2718F
:104150005A4600F06EFB002843D1B1444846514610
:104160003A4600F066FB00283ED1A4F5C274CBEBC2
:104170000404E21B22D101238DF80E300023619349
:10418000EB7A05F11001502205A88DF80F3027F0C9
:10419000DDF805F160014FF4907219A827F0D6F808
:1041A000304601A94FF4C27200F043FB044680B1CF
:1041B0003046FFF781FE6FF0040017E009EB0700BF
:1041C00005EB080100F035FB0028D4D06FF00300A8
:1041D0000CE02846FFF770FE204607E04FF0FF3066
:1041E00004E06FF0010001E06FF0020063B0BDE891
:1041F000F08F00BF004000004252434D0080000895
:104200000040000870B50646084614461D46FFF7F4
:104210007DFE2A460119304627F098F8002070BD2F
:10422000042910B5044613D1102A04D1502B0FD104
:10423000FFF7A4FE14E0A2F16000B0F5907F07D272
:10424000242B05D1104621460122FFF7EDFE07E0A1
:10425000064850F82100214610441A46FFF748FF4F
:10426000002814BF0420002010BD00BF04F604087D
:1042700010B504460020FFF749FE204410BD70B57C
:104280000546144608460E46FFF7F2FF2946224629
:1042900000F0CFFA40B106F5EB5029462246BDE8C2
:1042A00070401C30FFF724BF70BD0000BFF34F8F7C
:1042B0000449054BCA6802F4E0621343CB60BFF3C4
:1042C0004F8FFEE700ED00E00400FA0507B501207E
:1042D000FDF728F9FDF74CFA0020FDF76DF94FF4D2
:1042E0008050FDF77DF94FF4A050FDF76FF90320E2
:1042F000FCF7EEFE0120FCF7F1FE052300934FF4DE
:1043000080001A21F0220223FDF724F90120FDF795
:1043100031F93920FDF718FA0028FAD00220FDF70C
:1043200039F9FDF741F90828FBD1042003B05DF805
:1043300004EBFCF721BD704708B500F0ECFC00234E
:10434000F02103F16042013302F56142512B82F802
:104350000013F6D14FF44070FCF7CEFC08F094FD4A
:10436000FEF798FD00F0BEFA00F0DEFB00F0F0FB77
:10437000BDE8084000F022BC13B5084B0024197DAD
:10438000224600941869234600F09AFB4FF400106F
:104390002146FDF7F5F8204602B010BD6CEF040889
:1043A00008B500F005FCBDE808400AF0CFB90000F0
:1043B00010B5064C0221204600F0E4FA2046012107
:1043C000034A002300F018FB002010BD54F004083D
:1043D000A14302080120704770B588B000F0B8FB17
:1043E000224808F0D4FC00283ED10446204B4FF070
:1043F000FF329A631F4B4FF400325A601E4E4FF04B
:1044000000625A600C25A319197B00959868002258
:104410000123083400F054FB302CF4D14FF4800019
:104420000121FDF749F901214FF40060FDF768F91A
:10443000FDF7FAFB782300248DF81C3002A84FF416
:10444000007304930294039405940694FDF7FAFB19
:104450000320FDF715FC2046FDF71EFC0120FDF7AB
:1044600009FC00F08DFB204608B070BD7C0F0020D9
:10447000002C014000E100E054F004082DE9F04F69
:1044800087B01C469DF84C3082460293149B8B46A5
:104490000192109EBDF8487013B1149A0023136066
:1044A00000F056FB934A00239046934D13604FF063
:1044B00005094FF0FF3C03934FF000024FF0FF332C
:1044C000AB6309F1FF398D4B1FFA89F91A70B9F105
:1044D000000F00F0F1808A4BBBF1350FC3F800B03C
:1044E00040F0CF80874BEB63019B042B1DD1B7F5C8
:1044F000807F26F4FF7600F2EC80802F10D8402FCA
:1045000000F2DF80202F00F2DE80102F00F2DD802D
:10451000082F00F2DC80042F8CBF0824042401E063
:104520004FF4807426F001062643774B119A83F8E6
:1045300000A0764BBAF1010F1A6007EB040202F1FA
:10454000FF3292FBF4F2724B04FB02F21F60714BDC
:1045500008BF11991A6018BF6F49704B402C196041
:10456000C5F824C0AA6227D00CD8082C1ED004D8C5
:10457000022C2DD0042C17D014E0102C18D0202C95
:1045800018D00FE0B4F5007F1CD005D8802C15D0D2
:10459000B4F5807F14D005E0B4F5806F14D0B4F585
:1045A000006F13D0002314E0202312E0302310E02A
:1045B00040230EE050230CE060230AE0702308E063
:1045C000802306E0902304E0A02302E0B02300E073
:1045D00010235349CDF814C051F82A10920841F421
:1045E000006141F009010B43EB62039B4FF07C61DA
:1045F000C8F800304B4B4C4899602723C8F814305A
:104600004A4BC8F80830454B19680493C8F80C1099
:10461000C8F8042040F27542AE603221EA600122FF
:1046200008F0C3FB049B0246002857D1334ADDF84B
:1046300014C01278012A3FF43FAF6A6B12F00C0FDE
:104640007FF43AAF6A6B12F0330F7FF435AF384A1C
:10465000013A3FF431AF40F23F21686B014000293D
:104660007FF42AAF696B11F4405FF1D1BAF1000F0A
:104670001AD1264A1968264B10681A6826F066FE79
:1046800012E04BF48863AE60EB60294B013B696B31
:104690003FF412AF029A2AB940F23F220A40002AA0
:1046A0007FF40AAF0A05F1D4149B43B1124B149A5C
:1046B0005B691360002211E040F21B420EE0149A85
:1046C0000CE080242EE740242CE720242AE7102445
:1046D00028E726F001064FF4007426E7019200F067
:1046E0004FFA019A044B10464FF48001D96307B08A
:1046F000BDE8F08F58640240002C01406D0F00208F
:10470000840F0020C0004000780F00208817002090
:10471000800F0020740F0020880F0020700F0020F1
:104720009CF70408006402407C0F0020802C0140AC
:10473000A0860100F0B5002489B007944FF4FA7602
:1047400001270120002104220346009401940294D1
:1047500003970494FFF792FE05210422012300949D
:1047600001940294039704940020FFF787FE07AB9F
:1047700004930094019402940394002003210422E2
:104780000123FFF77BFE013E054612D018B1012040
:1047900008F044FBD5E7079B0290039004900120AA
:1047A0008DE82800072104220346FFF767FE28460C
:1047B00000E0022009B0F0BD7FB500234FF4006295
:1047C0008DF8143000930193029303920493FDF744
:1047D0002BFA6846FDF736FA0320FDF751FA01205F
:1047E000FDF748FA024A034BDA6307B05DF804FBB1
:1047F000C0004000002C01400020704738B504463E
:104800000D46FCF777FCF320FCF7A6FC00F086FAD7
:10481000AC420AD820460221FCF7D0FC082800D080
:10482000FEE700F07BFA0834F2E7FCF771FC0020A9
:1048300038BD2DE9F04781460F46904601EB020A4C
:10484000FCF758FCF320FCF787FC3C464D465445EA
:104850001ED2AB0710D1C4EB0A030F2B4FF00B068F
:104860000BDD28462168FCF7DFFC082801D0013E5B
:10487000F7D104350434EAE70B2628462178FCF703
:10488000F1FC082801D0013EF7D101350134DEE703
:1048900039464246484626F049FD00280CBF002410
:1048A0000424FCF735FC2046BDE8F08710B504462B
:1048B00000F04EF92179012322688B409BB21383CB
:1048C00000F05EF9002010BD10B5044600F040F97C
:1048D0002179012322688B409BB2538300F050F969
:1048E000002010BD08B5C0220021054826F054FD67
:1048F0004FF480400121FCF703FF002008BD00BFFA
:104900008C1700201B4B98422AD012D8A3F5406385
:10491000984221D004D8A3F58063984228D025E09E
:10492000154B98421AD003F5806398421ED103209C
:104930007047124B984215D005D8A3F58063984272
:1049400014D1052070470E4B98420DD003F58063BB
:1049500098420BD108207047012070470220704711
:10496000042070470620704707207047FF207047DB
:10497000002070470010024000080240001802406A
:10498000001C024073B506460C4600F0E1F835689D
:104990002846FFF7B7FF164A164B116B53F8203025
:1049A0000B43136302239C4294BF002201228DF823
:1049B0000420E21E18BF01228DF805308DF8062074
:1049C0000CB1052C01D1012302E0012C18BF0023FA
:1049D00032798DF807300123934002A941F8083D50
:1049E0002846FCF77BFC00F0CBF8002002B070BD3D
:1049F00000380240A4F704082DE9F7431D46037967
:104A0000012402290746164604FA03F406D00329B6
:104A100007D001294AD14FF0080904E04FF00C09F2
:104A200001E04FF0100900F093F8224B1B6814EAE4
:104A3000030836D13868FFF765FF3979FDF7A1F92A
:104A4000012368468DF806308DF8059000948DF8A6
:104A50000480FCF7EFFAE30603D039790631C9B2D6
:104A600009E014F4787F05D114F47C4F0CBF0021C9
:104A7000282100E017214BB2012201F01F018A40DA
:104A80000D495B0941F823203A790C2353430B4924
:104A90003868CA18C8505660956000F071F8002058
:104AA00005E000F06DF841F27A7000E0052003B0F7
:104AB000BDE8F083003C014000E100E08C170020DD
:104AC0002DE9F3410D4690461F460646FFF71AFFB3
:104AD000044600F03DF81249124A0B6B52F824408C
:104AE00001221C430C630221AA408DF805108DF8A9
:104AF000041002A941F8082D30468DF806808DF883
:104B00000770FCF7EBFB304629469DF82020FCF7A8
:104B100035FC00F035F8002002B0BDE8F08100BFA0
:104B200000380240A4F70408074B00201A6842F03E
:104B300001021A601A6822F002021A60034A13691D
:104B400043F00403136170470070004000ED00E083
:104B500072B6094B1A68002ADFBF08490A6922F0B9
:104B600004020A61DCBF00221A601A6801321A606E
:104B700062B60020704700BF5018002000ED00E032
:104B800072B6094A1368013B002BD8BF074913606E
:104B9000DFBF0B6943F004030B610023D8BF136030
:104BA00062B60020704700BF5018002000ED00E002
:104BB000014B01221A7070474C18002041F27B70A3
:104BC000704700000E4B984204D80E4A9368194370
:104BD000916070470C4B984204D80A4AD368194335
:104BE000D1607047094B9842A3F1580395BF9A686A
:104BF000DA681143114394BF9960D960704700BFD0
:104C00005860024000600240B860024058640240B0
:104C1000094B984202D853F8580C7047074B9842FA
:104C200002D853F8B40C7047054B9842A3F15803CF
:104C300094BF18685868704758600240B8600240D6
:104C400058640240036810B51A68044611884FF68C
:104C5000FF711B6B406811805A6843689B1AC360E0
:104C600063695BB1FCF72CF86369984206D304F1E1
:104C70000800012108F0A6F80023636110BD10B5FB
:104C8000044603689869FFF7C3FF2368596A08421E
:104C900004D09869FFF796FF00236383236898691F
:104CA000FFF7B6FF2368996A084204D09869FFF7B6
:104CB00089FF04236383236933B104F10C000121CC
:104CC000BDE8104008F07EB810BD10B5044603687A
:104CD000186BFFF79DFF2368D96B084204D0186B4F
:104CE000FFF770FF002323832368186BFFF790FF03
:104CF0002368196C084204D0186BFFF763FF042384
:104D00002383636933B104F108000121BDE8104039
:104D100008F058B810BD41F27B70704741F27B70CB
:104D200070470020704700F1080343604FF0FF32E6
:104D3000C360036100238260036070470023036146
:104D4000704743689A684B608A609A6851609960BE
:104D5000036808610133036070470A6830B5531C6B
:104D600001D1036907E000F108035C6825689542FA
:104D700001D82346F9E75A684A6091608B60596010
:104D8000036808610133036030BD436882689A603C
:104D90008268536003695968814208BF5A600022E3
:104DA0000261186801381860704738B51546026C02
:104DB000044632B9056845BB406800F0DDFE656019
:104DC00023E065B9806826F0C1FAA268236C134419
:104DD0006268A360934218D32368A36015E0C0689B
:104DE00026F0B4FA236CE1685B42226819449142D0
:104DF00038BF6268E1603CBF9B18E360022D04D1BC
:104E0000A36B13B1A36B013BA363A36B0133A36338
:104E100038BD30B5056803466DB1C468026C1444F2
:104E2000C4604068844228BFDD600846BDE8304069
:104E3000D96826F08BBA30BD38B5044601F08CF83D
:104E400004F12405A36C002B0BDD636A4BB12846EB
:104E500000F0B4FD08B100F017FEA36C013BA364A1
:104E6000F0E74FF0FF33A36401F088F801F074F825
:104E700004F11005636C002B0BDD23694BB1284650
:104E800000F09CFD08B100F0FFFD636C013B636422
:104E9000F0E74FF0FF336364BDE8384001F06EB8CF
:104EA00038B504460D4601F057F8206CE36B2268D4
:104EB0004343D1181B1A13446160E36000214FF093
:104EC000FF33A163A2606364A36455B9236983B10E
:104ED00004F1100000F072FD01280AD101F028F859
:104EE00007E004F11000FFF71EFF04F12400FFF7B4
:104EF0001AFF01F043F8012038BDF8B50F46064609
:104F000008B9002418E04C2000F0DEFF0446002819
:104F1000F7D007FB06F0013000F0D6FF0546206011
:104F200030B1E663276420460121FFF7B9FF03E0B3
:104F3000204600F0D2FF2C462046F8BD10B50222D4
:104F40000C460021FFF7D9FF00B1846310BD2DE9A5
:104F5000F0430026044689461F46B04685B00192BC
:104F600000F0FAFFA26BE36B9A4201D3022F12D139
:104F7000204649463A46FFF718FF636A3BB104F101
:104F8000240000F01BFD012801D100F0D1FF00F04A
:104F9000F5FF012043E0019D15B900F0EFFF3DE072
:104FA00016B902A800F03CFD00F0E8FF00F05CFB41
:104FB00000F0D2FF636C013308BFC4F84480A36CD7
:104FC000013308BFC4F8488000F0D8FF02A801A947
:104FD00000F032FDE8B900F0BFFFA66BE56B00F012
:104FE000CDFFAE420FD104F11000019900F0AEFCEC
:104FF0002046FFF721FF00F0DBFB08B10126AFE7F9
:1050000000F096FFFAE72046FFF716FF00F0D0FB0E
:10501000F4E72046FFF710FF00F0CAFB002005B0C0
:10502000BDE8F08338B54C2000F04EFF0446C8B10F
:1050300001230025C3634FF0FF338563456043645C
:10504000056083648560C56005641030FFF76BFE02
:1050500004F12400FFF767FE204629462A462B4626
:10506000FFF775FF204638BD38B54568044600F0A7
:105070003BFD854209D1E1680139E16039B920463B
:105080000A460B46FFF763FF01E0002038BD012010
:1050900038BD2DE9F041044615461E46884600F00D
:1050A00053FFA26BE36B07469A4201D3022E17D13E
:1050B000204641463246FFF778FEA36C01330AD101
:1050C000636A5BB104F1240000F078FC30B12DB1CB
:1050D00001242C6005E0A36C0133A364012400E0EB
:1050E0000024384600F046FF2046BDE8F0812DE957
:1050F000F04300270446884699463E4685B0019213
:1051000000F02AFFA36B3BB320464146E568FFF75A
:1051100080FEB9F1000F12D1A36B013BA36323689A
:1051200013B900F0E1FC606023698BB104F1100059
:1051300000F044FC01280BD100F0FAFE08E0636A9D
:10514000E5602BB104F1240000F038FC0028F3D115
:1051500000F014FF01256AE0019D15B900F00EFF73
:1051600065E017B902A800F05BFC00F007FF00F053
:105170007BFA00F0F1FE636C013308BF6664A36C38
:10518000013308BFA66400F0F9FE02A801A900F0EF
:1051900053FC002845D100F0DFFEA56B00F0EEFEC9
:1051A000002D38D1236833B900F0D6FE606800F0D6
:1051B000AFFC00F0E3FE019904F1240000F0C6FB0F
:1051C0002046FFF739FE00F0F3FA054608B1012743
:1051D00096E700F0ADFE00F00FFA0028F7D000F0DF
:1051E000BBFE636C013308BF6564A36C013308BF69
:1051F000A66400F0C3FE00F0AFFEA76B00F0BEFE99
:105200002FB900F0FFF92046FFF716FE0FE0204609
:10521000FFF712FEDBE72046FFF70EFE00F0C8FAAC
:10522000D5E72046FFF708FE00F0C2FA0025284621
:1052300005B0BDE8F08370B5466804460D4600F041
:1052400053FC864204D1E36801200133E36070BD62
:1052500000210B4620462A46FFF749FF012802BFDE
:10526000E3680133E36070BD10B5044600F074FEDE
:10527000A46B00F083FE204610BD10B50446006804
:1052800000F02BFE2046BDE8104000F026BE38B5E9
:1052900004460D4600F060FE636C013304BF00233A
:1052A0006364A36C013304BF0023A36400F066FEB3
:1052B000A36B23B904F12400294600F069FB2046C2
:1052C000BDE83840FFF7B8BD08B5034C2368012B93
:1052D000FDD900F02DFEF9E7A01800200C4B10B509
:1052E00019680C4B04461B6841F8040F984205D21C
:1052F000BDE81040084B1868FFF72FBD074B186832
:10530000FFF72BFD064B1A68944238BF1C6010BD96
:1053100070190020881900208C19002068180020BE
:105320009C0100202DE9F84F81460AAF4C200E4623
:1053300097E8800915469A4600F0C6FD0446002805
:1053400000F0A780BBF1000F03D1A80000F0BCFD66
:1053500000E05846206318B9204600F0BEFD98E0F2
:10536000AD002A46A52126F017F80023A364236B7D
:10537000043D1D4425F0070504F13403013E04F10A
:10538000430216F8011F31BB1A46BB46092F28BF3E
:105390004FF0090B0023261D1370304684F843306C
:1053A000C4F82CB0C4F844B0FFF7C8FC04F11800EE
:1053B000FFF7C4FCCBF10A032461A36164622846B1
:1053C0004946524600F098FD2060B8F1000F07D022
:1053D000C8F8004004E09342D7D003F8011BD0E79F
:1053E00000F0BAFD2D4A2E4D1368DFF8D890013336
:1053F00013602B683BBB2C601268012A2BD19846A6
:1054000009EB080008F11408FFF78DFCB8F1C80F8C
:10541000F6D1DFF8B4A0DFF8B4805046FFF783FC84
:105420004046FFF780FC1F48FFF77DFC1E48FFF752
:105430007AFC1E48FFF777FC1D4BC3F800A01D4BFC
:10544000C3F8008007E01C4B1B6823B92B68DB6A9C
:10545000BB4298BF2C60194A1420136801331360B3
:10546000174AE36A116800FB03908B42314688BFFC
:105470001360FFF766FC00F081FD0F4B1B682BB13A
:105480002B68DB6ABB4201D200F052FD0120BDE86F
:10549000F88F4FF0FF30BDE8F88F00BFA81900204B
:1054A000701900207419002074180020541800206E
:1054B000681800208C1900206C180020901900201A
:1054C000AC190020A0180020941900208818002092
:1054D00038B5044600F040FD0CB9134B1C68251D7F
:1054E0002846FFF752FCA36A1BB104F11800FFF72E
:1054F0004CFC0E482946FFF724FC0D4A1368013383
:1055000013600C4A13680133136000F037FD0A4B37
:105510001B683BB1044B1B689C4203D1BDE838407B
:1055200000F006BD38BD00BF7019002074180020BF
:1055300070180020901900206C180020124B10B534
:105540001B68044683421DD000F006FD63690F4AC4
:10555000934208D00E4A934205D00E4A934202D09D
:105560000D4A934202D100F009FD0BE00B490022E5
:1055700088188342F7D01432C82AF9D100F0FEFC13
:10558000012010BD002010BD70190020541800200B
:10559000941900208818002074190020A0180020F9
:1055A000014B1868704700BF7019002038B50446D9
:1055B00000F0D2FCA36AB3B1251D04F11800FFF777
:1055C000E4FB2846FFF7E1FB094AE36A116814206F
:1055D0008B4288BF1360074A294600FB0320FFF770
:1055E000B0FB0123A364BDE8384000F0C7BC00BF96
:1055F000AC190020A0180020014B1B68986C704764
:1056000070190020024B00221B689A64704700BF8B
:105610007019002030B5002485B0009401940294E4
:1056200003940D480D493E222346FFF77BFE0128D7
:105630000FD100F009FB012805460AD100F084FCD7
:10564000074B1D60074B1C6005B0BDE8304000F003
:10565000DBBC05B030BD00BFC9520208D8F7040852
:105660006C18002088190020024A13680133136067
:10567000704700BF6819002010B500F06DFC034BA7
:105680001C6800F07BFC204610BD00BF881900207C
:105690002DE9F84F3C4B1B68002B39D13B4BDFF811
:1056A00008B11A6801321A601D68ADB9384B394922
:1056B00018680C681C600860374801680131016097
:1056C0001968096811B94FF0FF3303E01B68DB6804
:1056D000DB685B68CBF80030DBF8003000249D42CB
:1056E0002E4F0BD3DFF8A880DFF8C090D8F8003039
:1056F0001B68D3B94FF0FF33CBF800303B68DA6A50
:1057000014235343264AD358022B28BF012406E012
:10571000244A002413680133136007F0DBFC214B9B
:105720001B686BBB07F0D6FC2AE0D8F80030DB68BA
:10573000DE6871688D4202D2CBF80010DEE706F118
:10574000040A5046FFF721FBB16A19B106F11800AF
:10575000FFF71BFBF06AD9F80010114B88424FF09D
:10576000140288BFC9F80000514602FB0030FFF761
:10577000E8FA3868F16AC36A994228BF0124B5E79C
:105780002046BDE8F88F00BF681900208819002066
:10579000681800208C1900206C1900207019002056
:1057A000A01800209C1800209C010020AC190020AB
:1057B0002DE9F84300F0D0FB274B1A68013A1A6034
:1057C0001C680CB1002441E0244B1B68002BF9D06D
:1057D000234E244FDFF89C903368EBB1F368DD680B
:1057E00005F1040805F11800FFF7CFFA4046FFF76E
:1057F000CCFAEB6A3A681420934200FB03904146CE
:1058000088BF3B60FFF79DFA174BEA6A1B68DB6AAB
:105810009A4228BF0124DFE7144D2B685BB12B6847
:105820004BB1FFF735FF2B68002803F1FF3318BF9A
:1058300001242B60F3E7012C0D4B02D01A68012ADA
:10584000C0D100221A6000F073FB012400F096FB27
:105850002046BDE8F88300BF68190020A819002081
:1058600074190020AC190020701900209C18002029
:10587000B0190020A018002010B5044618B9BDE8E2
:10588000104000F055BBFFF7EFFE084B1B681C44AF
:10589000074B18680430FFF778FA2046FFF71EFD23
:1058A000FFF786FF0028EAD010BD00BF881900204E
:1058B0007019002038B51F4B1B681BB11E4B01220D
:1058C0001A6038BD1D4C20680268036B9A4203D8E9
:1058D00000F1340110F036F925681949286B1422BB
:1058E00025F024FD20B1284605F1340110F02AF9F5
:1058F000144A15481425136813496B43C3581BB940
:105900001368013B1360F6E70E4B1A6814235343E8
:10591000C818456808336D680B449D4208BF6B6822
:10592000456008BF4360142303FB02125368DB6821
:10593000236038BD68190020B019002070190020BC
:10594000C4F70408AC190020A018002038B50D4693
:105950000C4C21681831FFF700FA20680430FFF77B
:1059600014FA6B1C06D1216807480431BDE83840A1
:10597000FFF7E7B9054B18682844BDE83840FFF742
:10598000ADBC00BF701900205418002088190020F9
:1059900038B50D46074C21681831FFF7D2F9206859
:1059A0000430FFF7F2F9044B18682844BDE838408A
:1059B000FFF794BC701900208819002038B5C3681F
:1059C000DC6804F118052846FFF7DFF90F4B1B6868
:1059D00073B9251D2846FFF7D8F90D4AE36A116807
:1059E00014208B4288BF13600A4A00FB032000E0AA
:1059F00009482946FFF7A5F9084BE06A1B68DB6AEE
:105A0000984234BF0020012038BD00BF6819002033
:105A1000AC190020A0180020741900207019002073
:105A2000034B1B680360034B1B684360704700BF58
:105A30006C1900208819002038B50D46044600F086
:105A40008BFA0F4B18682B685A1C11D00D4A11683D
:105A50002268914202D0626890420BD26268811A39
:105A6000994207D2121A13442B602046FFF7D8FF41
:105A7000002400E0012400F081FA204638BD00BF78
:105A8000881900206C190020014B01221A60704710
:105A9000B019002010B5044608B90F4B1C686269A4
:105AA0000E4B9A4216D100F057FA201DFFF76DF900
:105AB0000B4A1368013B13600A4A1368013B1360E9
:105AC00000F05CFA206B00F008FA204600F005FABE
:105AD000012010BD002010BD701900207418002096
